:020000040800F2
:10000000C0060020ED010008DD1200089111000873
:10001000D912000899030008F5120008000000003A
:10002000000000000000000000000000FF010008C8
:100030009D0300080000000003020008E112000810
:10004000070200080702000807020008070200086C
:10005000070200080702000807020008070200085C
:10006000070200080702000807020008070200084C
:10007000070200080702000807020008070200083C
:10008000070200080702000807020008070200082C
:10009000070200080702000807020008070200081C
:1000A000070200080702000807020008070200080C
:1000B00007020008070200080702000807020008FC
:1000C00007020008070200080702000807020008EC
:1000D00007020008070200080702000807020008DC
:1000E00007020008070200080702000800000000DD
:1000F0000000000000000000000000000000000000
:1001000000000000000000000702000807020008CD
:10011000070200080702000807020008E9120008A9
:10012000070200080702000807020008070200088B
:10013000070200080702000807020008070200087B
:10014000070200080702000807020008070200086B
:1001500000F002F800F03AF80AA090E8000C82449F
:100160008344AAF10107DA4501D100F02FF8AFF27C
:10017000090EBAE80F0013F0010F18BFFB1A43F085
:10018000010318471418000034180000103A24BF67
:1001900078C878C1FAD8520724BF30C830C144BFEC
:1001A00004680C607047000000230024002500262E
:1001B000103A28BF78C1FBD8520728BF30C148BFCA
:1001C0000B6070471FB51FBD10B510BD00F0A9F83A
:1001D0001146FFF7F7FF01F01FFB00F0C7F803B46B
:1001E000FFF7F2FF03BC00F0CFF80000094880479A
:1001F00009480047FEE7FEE7FEE7FEE7FEE7FEE709
:10020000FEE7FEE7FEE7FEE704480549054A064B20
:1002100070470000E512000851010008C0000020EE
:10022000C0060020C0020020C002002053EA020CD9
:1002300000F069802DE9F04B4FF00006002B1FBF46
:10024000B3FA83F503FA05F424FA05F65E4012BF0B
:100250001643B2FA82F502FA05F4C5F120051EBF75
:1002600022FA05FC44EA0C04203556EA044C4FEA15
:10027000144418BF641C4FF000084FF0000990426E
:1002800071EB030C39D3002919BFB1FA81F701FAD8
:1002900007F6B0FA80F700FA07F6C7F120071EBF8D
:1002A00020FA07FC46EA0C062037B6FBF4FCA7EB65
:1002B0000507103F07F01F0BCBF120062CFA06F6BE
:1002C0000CFA0BFB44BFB3460026202FA4BF5E46AA
:1002D0004FF0000B5BEA060C08BF4FF0010B19EB67
:1002E0000B0948EB0608ABFB027C06FB02CC0BFBC0
:1002F00003CCC01B71EB0C01C1E70B460246414623
:100300004846BDE8F08B13B5084318BF4FF0FF30E7
:100310000146AFF30080BDE81C407047704770474E
:100320007047754600F02CF8AE4605006946534606
:1003300020F00700854618B020B5FFF765FFBDE83F
:1003400020404FF000064FF000074FF000084FF03C
:10035000000BAC46ACE8C009ACE8C009ACE8C00989
:10036000ACE8C00921F007018D46704710B504467E
:10037000AFF300802046BDE81040FFF730BF00001B
:10038000004870471000002001491820ABBEFEE76E
:100390002600020070470000FEE7000070470000E2
:1003A00072B600BFFEE700002DE9F04F82B00E6884
:1003B000002E00F0FC8040F20C4C41F200424FF65F
:1003C000FF7EC4F2010CC4F20102042700240123C1
:1003D000C1F2100E4FF0000A4FF00009904208BF22
:1003E0000327009744E0012704F00C030F229A40F2
:1003F0002BEA020207FA03F34FEA9A051A4346F87A
:100400002520D1F804B040F20045C4F201055FEAAE
:10041000CB322A6854BF22EA080242EA08022A6064
:100420006A685FEA8B3354BF22EA080242EA080294
:100430006A605FEACB23AA6854BF22EA080242EA54
:1004400008025FEA8B23AA60DCF800204FF001036A
:1004500054BF22EA080242EA0802CCF800200E68E3
:100460000AF1010A36FA0AF204F1040400F09F804E
:1004700003FA0AF816EA080FF1D04E68764511DC47
:10048000122E51D8DFE806F0340A42465050505040
:10049000505050505050505050494D00D1F80C9091
:1004A00042E000BF4FF6FF72C1F2210296420FDC1C
:1004B0000022C1F2110296421AD00022C1F21202A9
:1004C000964215D00022C1F22102964210D02BE0B4
:1004D0000022C1F2220296420AD00022C1F2310269
:1004E000964205D00022C1F2320296421CD100BFD2
:1004F0008A6842B1012A14BFC0F81480C0F8108085
:100500004FF0080910E04FF004090DE0CA6802F14D
:10051000080909E04FF0000906E0CA6802F1040981
:1005200002E0CA6802F10C0922460646BAF1080F39
:1005300024BF203A043637680F25954027EA050581
:1005400009FA02F22A433260CA79D2067FF587AFF0
:1005500041F21803C4F202031A6842F001021A6061
:100560001A6802F001020192019A40F20042C4F2BC
:100570000102A2F57E762AF0030256F802B040F698
:100580000002C4F2010290420FD040F60042C4F2D1
:10059000010290423FF427AF41F20002C4F201028F
:1005A000009F904208BF02271EE700271CE702B009
:1005B000BDE8F08F002A08BF090401617047000000
:1005C00040F2BC00C2F200000068704740F2040034
:1005D00040F2BC01C2F20000C2F2000100780A68D9
:1005E000104408607047000080B542F20000C4F279
:1005F0000200016841F010010160032000F07EF864
:10060000002000F005F800F02BF8002080BD00006D
:10061000B0B540F20402C2F2000240F200011278CA
:10062000C2F200014FF47A730968B3FBF2F2044698
:10063000B1FBF2F1084600F0B9FB0F2C4FF00105B9
:100640000CD858B94FF0FF3021460022002500F0A9
:1006500029F840F20800C2F2000004602846B0BD4C
:1006600082B041F21800C4F202000168042241F095
:1006700001010160016801F00101019101994168E6
:1006800041F080514160406800F080500090009837
:100690000420C4F20100016862F31A61016002B033
:1006A0007047000010B54EF60C5CCEF2000CDCF882
:1006B0000030C3F3022E8EF00704042C28BF04245C
:1006C000BEF103034FF0FF3E0EFA04F438BF0023DF
:1006D000A14399400EFA03F39A43114300F00F022D
:1006E00000F160430901043A03F5644362440028C1
:1006F00048BF02F10C03197010BD00004EF60C51FA
:10070000CEF200010A684FF6FF031A4060F30A2296
:1007100042F0806040F0FD70086070472DE9F043C2
:1007200081B0002800F0878042F20008C4F202087D
:100730000446D8F800000D4600F0070088420CD2AD
:10074000D8F8000020F007002843C8F80000D8F8C7
:10075000000000F00700A8426DD1206841F20409B2
:100760008107C4F2020917D5410705D5D9F8001051
:1007700041F4E061C9F80010010705D5D9F800106F
:1007800041F46051C9F80010D9F80010A26821F0B6
:10079000F0011143C9F80010C00743D1D8F8000098
:1007A00000F00700A8420CD9D8F8000020F007009C
:1007B0002843C8F80000D8F8000000F00700A8425D
:1007C00039D12068410707D5D9F80010E26821F433
:1007D000E0611143C9F80010000708D5D9F80000FE
:1007E000216920F4605040EAC100C9F80000D9F83E
:1007F000002049F2806002F00C010429C0F2980048
:1008000075D0082942D141F66A11C2F38344C0F67B
:100810000001095DD2033ED440F60010C0F23D0055
:10082000484364E06068022809D0012829D159F8BA
:10083000041C890307D4012001B0BDE8F08359F8F6
:10084000041C8901F7D5D9F8001021F003010843F1
:10085000C9F80000FFF7B4FE064641F2883700BF32
:10086000D9F80000616800F00C00B0EB810F95D062
:10087000FFF7A6FE801BB842F2D9032001B0BDE805
:10088000F08359F8041C8907D5D5DCE741F2002034
:10089000C0F27A002BE0D9F8282041F6881302F044
:1008A0000F02C0F60003D9F828709A5CFB0303D44A
:1008B0004843B0FBF2F014E0D9F82830D9F828709A
:1008C00042F60056C7F30327C0F23116C3F30313F1
:1008D00007FB00600133A0FB0101A3FB0223FFF72C
:1008E000A5FCA4F10D01B1FA81F14909C840D9F87C
:1008F000001041F67812C1F30311C0F60002515CFA
:1009000040F2000220FA01F140F20800C2F20000B9
:100910000068C2F200021160FFF77AFE002001B009
:10092000BDE8F0832DE9F04182B0002800F0F181AC
:100930000446007841F20006C007C4F202060CD05B
:10094000706800F00C00042840F09B803068800341
:1009500003D5A068002800F0DC81207880071BD533
:10096000706810F00C0F09D0706800F00C000828B7
:1009700040F0A4807068C00300F1A0803068800758
:1009800003D56069012840F0C4813068A16920F076
:10099000F80040EAC10030602078000736D42078A3
:1009A000400749D4E06A002800F09B817168C903C0
:1009B00008D5716801F00C01082903D1F16AC90357
:1009C00000F1A781022840F0DF803068C00006D522
:1009D000F06A616B00F0F000884240F09A8168276D
:1009E000C4F2422700203860FFF7EAFD054600BF49
:1009F0003068000140F15981FFF7E2FD401B642897
:100A00004FF00300F4D902B0BDE8F081E06900289E
:100A10007DD06820C4F242200121C0F81814FFF7ED
:100A2000CFFD0546706A800700F18480FFF7C8FD9E
:100A3000401B0228F6D934E1F06910F0805808D143
:100A4000F06940F08050F061F06900F08050009053
:100A5000009847F20007C4F200073868C00545D483
:100A6000386840F480703860FFF7AAFD054600BF83
:100A70003868C0053AD4FFF7A3FD401B6428F7D9B6
:100A80000FE1706800F00C00082803D17068C00303
:100A90003FF55CAFA068002800F0D680B0F5A02F2D
:100AA00000F0EA80B0F5803F00F0EA80306820F482
:100AB00080303060306820F48020E4E060690028F5
:100AC00040F26800C4F2422074D0012140F8681C52
:100AD000FFF776FD054600BF306880073FF555AF4C
:100AE000FFF76EFD401B0228F6D9DAE020690028E6
:100AF00072D0052800F08980012800F08A80306AD1
:100B000020F001003062306A20F0040084E06820A8
:100B1000C4F242200021C0F81814FFF751FD054629
:100B2000706A80077FF53BAFFFF74AFD401B022844
:100B3000F6D9B6E040F20000C2F20000006844F6C8
:100B4000D351C1F26201A0FB0101480A019000BF2C
:100B500000BF0198411E002801913FF420AF00BF63
:100B60000198411E002801913FF419AF00BF019880
:100B7000411E002801913FF412AF00BF0198411EB1
:100B800000280191E4D10AE7F06A002120F48030C6
:100B9000F0626820C4F242200160FFF711FD0546B3
:100BA0003068000140F19D80FFF70AFD401B64287A
:100BB000F6D976E0002140F8681CFFF701FD0546F4
:100BC000306880077FF5E8AEFFF7FAFC401B02288B
:100BD0004FF00300F4D916E7306A20F001003062CC
:100BE000306A20F004003062FFF7EAFC054641F26B
:100BF000883700BF306A80071DD5FFF7E1FC401B36
:100C0000B8424FF00300F5D9FDE6306A40F0040029
:100C10003062306A40F001003062FFF7D1FC0546D7
:100C200041F28837306A800705D4FFF7C9FC401BC2
:100C3000B842F7D935E0B8F1000F7FF4B3AEF069F0
:100C400020F08050F061ADE6306820F480303060F4
:100C5000306820F480203060FFF7B2FC054600BF0A
:100C6000306880037FF579AEFFF7AAFC401B64284B
:100C70004FF00300F4D9C6E6306840F480203060BD
:100C8000306840F480303060FFF79AFC054600BFC2
:100C9000306880033FF561AEFFF792FC401B64288B
:100CA000F6D9032002B0BDE8F081F06AD4E90C2146
:100CB00020F0F0000843F062F06A20F47060104306
:100CC000F06201203860FFF77BFC054630680001C8
:100CD00007D4FFF775FC401B64284FF00300F5D9DB
:100CE00091E6256A8DB1706800F00C00082814D1D7
:100CF000012D0ED07068616A00F480328A4208D1FA
:100D0000A16A00F47010884203D1002002B0BDE84F
:100D1000F081012002B0BDE8F0816827C4F24227CB
:100D2000002047F8080CFFF74BFC022D05460BD1BD
:100D30003068800113D5FFF743FC401B02284FF0B9
:100D40000300F5D95FE600BF30688001DDD5FFF70D
:100D500037FC401B02284FF00300F5D953E6606AC8
:100D6000B0F5803F09D1F16A6268E3681143F1622E
:100D7000F16A21F00F011943F1627168A26A21F44E
:100D80007411114308437060012047F8080CFFF705
:100D900017FC044630688001B7D4FFF711FC001B34
:100DA00002284FF00300F5D92DE60000411E002077
:100DB000B0EB116F1CBF012070474EF21002CEF253
:100DC000000251604EF62351CEF20001F0230B7069
:100DD000072190601160704740F27401C2F2000177
:100DE000096800224A6206E04A6A824228BF7047C8
:100DF0004A6A824205D24A6A824202D24A6A8242E0
:100E0000F2D37047704700007047000010B590F8AB
:100E10003C20012A4FF0020234D080F83D200268C5
:100E2000D2F804E0D2F808C00C682EF07003234317
:100E300040F2FF74C4F20004A24253600EDD40F69B
:100E40000003C4F200039A4211D042F60043C4F2F8
:100E500001039A420BD040F6004304E0B2F1804F08
:100E600005D040F20043C4F200039A4204D149681D
:100E70002CF08003194391600121002280F83D107D
:100E800080F83C20104610BD002804BF01207047A8
:100E900010B5044690F83D0028B9002084F83C00C5
:100EA000204600F065F8022084F83D00206840F2FA
:100EB000FF7142F6004C0268C4F2000140F6000ED9
:100EC000C4F2010C8842C4F2000E06DD70450DD05C
:100ED00060450BD040F6004304E0B0F1804F05D0F0
:100EE00040F20043C4F20003984203D1A36822F009
:100EF00070021A43884206DD70450DD060450BD064
:100F000040F6004104E0B0F1804F05D040F20041CE
:100F1000C4F20001884203D1216922F440720A43DD
:100F2000A36922F08001D4F804E0E2681943604527
:100F30000160C262C0F828E002D16169CCF83010CB
:100F400001214161002084F8461084F83E1084F8A5
:100F50003F1084F8401084F8411084F8421084F85F
:100F6000431084F8441084F8451084F83D1010BDF7
:100F700081B0006841F20041C4F20001884201D012
:100F800001B0704741F21C00C4F20200016841F058
:100F900020010160006800F020000090009801B07E
:100FA0007047000090F83D1001291CBF01207047D8
:100FB000022180F83D10006840F2FF71C4F2000188
:100FC00088420EDD40F60001C4F20001884211D0D3
:100FD00042F60041C4F2010188420BD040F60041C4
:100FE00004E0B0F1804F05D040F20041C4F20001AE
:100FF000884206D1816801F00701062904BF00205C
:101000007047016841F00101016000207047000055
:101010007047000010B5016804460869800744BFA6
:10102000C8685FEA807038D40869400744BFC86860
:101030005FEA40703DD40869000744BFC8685FEAB2
:10104000007043D40869C00644BFC8685FEAC06046
:1010500048D40869C0071CBFC8685FEAC0704ED199
:101060000869000644BFC8685FEA00604FD4086999
:10107000400644BFC8685FEA406050D408698006F3
:1010800046BFC8685FEA806010BD6FF0200220464E
:101090000A61BDE81040FFF7B7BE6FF002000861BB
:1010A000012020778869800741D02046FFF7B0FFF4
:1010B00043E06FF00400086102202077886910F493
:1010C000407F3ED02046FFF7A3FF40E06FF00800CE
:1010D000086104202077C86980073CD02046FFF7CC
:1010E00097FF3EE06FF01000086108202077C86984
:1010F00010F4407F39D02046FFF78AFF3BE06FF0C5
:1011000001000861204600F03FF82168A8E76FF071
:10111000800008612046FFF775FE2168A7E76FF0A1
:1011200040000861204600F031F82168A6E720461B
:1011300000F026F8204600F025F8216800202077EE
:1011400072E7204600F01CF8204600F01BF82168EA
:10115000002020776FE7204600F012F8204600F0CC
:1011600011F82168002020776CE7204600F008F88D
:10117000204600F007F821680020207769E700008A
:101180007047000070470000704700007047000083
:10119000FEE700002DE9F04F85B04FF0000B41F263
:1011A0001800CDF810B0C4F20200016841F200440A
:1011B00041F0400101600168C4F2010401F0400106
:1011C00000910099016804F5806541F0100101600B
:1011D0000168012201F010010091009901684FF4AB
:1011E000404941F00801016001684FF0010801F039
:1011F000080100910099016841F020010160006838
:101200004FF4404100F02000009000982846FFF77E
:10121000D1F92046FE2100224FF0FE0AFFF7CAF95D
:1012200043F2F03001AECDE9010BA4F58060314608
:10123000CDF80CB0FFF7B8F84CF22220CDE9010B45
:10124000A4F500603146CDF80CB0FFF7ADF81120E1
:10125000CDE9020B022728463146CDF804900497C9
:10126000FFF7A2F820463146CDE901A8CDE903B742
:10127000FFF79AF805B0BDE8F08F000080B582B0A6
:1012800040F2740041F200420021C2F20000C4F2B8
:10129000000247234FF6FE7CCDE90011C0E9002390
:1012A000C0E9021C8161FFF7EFFD002818BFFFF7BE
:1012B00077F840F27400C2F200006946FFF7A6FD1D
:1012C000002818BFFFF76CF840F27400C2F200006B
:1012D000FFF768FE02B080BDFEE70000FEE70000F9
:1012E000FFF774B97047000040F27400C2F20000CA
:1012F000FFF790BEFEE700002DE9F04140F27005D7
:1013000040F271064FF00008C2F20005C2F200067A
:10131000002700BF0020402185F80080377047F08B
:10132000B80400F0B9F9E4B20020214600F0B4F9A5
:101330000020C02100F0B0F90120402100F0ACF9FC
:101340000120214600F0A8F90120C02100F0A4F9F5
:101350000020402100F0A0F90020214600F09CF977
:101360000020C02100F098F9002400BF002000F008
:10137000EDF9601C44B2B4F1FF3FF7DCF8B201377D
:101380000728C7D30020287030700020402100F0CB
:1013900083F90020B82100F07FF90020C02100F07F
:1013A0007BF90120402100F077F90120B82100F0FD
:1013B00073F90120C02100F06FF90020402100F0F6
:1013C0006BF90020B82100F067F90020C021BDE8CA
:1013D000F04100F061B90000F0B581B0054640F27F
:1013E0007000C2F20000057040F27100C2F200000D
:1013F000017041F0B8040020402100F04DF90020B8
:10140000214600F049F90020C02100F045F90120F3
:101410004021012700F040F90120214600F03CF96D
:101420000120C02100F038F9AE0967F39F1530465E
:10143000294600F031F93046214600F02DF93046BA
:10144000C02101B0BDE8F04000F026B980B500F041
:101450000BF800203F2100F01FF901203F21BDE8DB
:10146000804000F019B9000070B586B0002041F24C
:1014700018010590C4F202010A6841F6000442F026
:1014800040020A600968C4F2010401F040010191C0
:101490000199FF2102ADCDE902100126204629461F
:1014A0000496FEF781FF4FF4F850CDE902060320C1
:1014B0000590204629460496FEF776FF20464FF415
:1014C00080710122FFF776F820464FF480610122F7
:1014D000FFF770F820464FF480510122FFF76AF8B9
:1014E00020464FF400610122FFF764F806B070BD9A
:1014F0002DE9F041CF080D46394690460646FFF7E4
:101500006BFF00F01BF830463946FFF765FF00F02F
:1015100015F8044630463946FFF75EFF05F0070030
:101520000121814044EA0100B8F1000F08BF24EA1C
:101530000100BDE8F04100F009B9000070B584B0C9
:1015400040F27005C2F200052878800900F056F8D4
:1015500040B20028F8D441F600040020FF21C4F274
:1015600001040390CDE90010012002906946204655
:10157000FEF71AFF20464FF480610122FFF71AF8A8
:1015800020464FF480710122FFF714F82878800973
:1015900004D0012808D14FF4006101E04FF48051DC
:1015A00020460022FFF706F84FF4E170FFF714FC25
:1015B00020464FF400710122FEF7FCFF4FF4E1706A
:1015C000FFF70AFCA66820464FF400710022FEF7E0
:1015D000F1FF2878810904D0012909D14FF4006175
:1015E00001E04FF4805120460122FEF7E3FF287806
:1015F000411CF0B2297004B070BD000070B584B019
:10160000054641F600040020FF21C4F201040390C6
:10161000CDE900100120029069462046FEF7C4FE85
:1016200020464FF480610122FEF7C4FF20464FF4AC
:1016300080710022FEF7BEFF25B1012D08D14FF4C5
:10164000006101E04FF4805120460022FEF7B2FF16
:101650004FF4E170FFF7C0FB20464FF40071012208
:10166000FEF7A8FF4FF4E170FFF7B6FBA66820462F
:101670004FF400710022FEF79DFF25B1012D08D126
:101680004FF4006101E04FF4805120460122FEF743
:1016900091FFF0B204B070BD70B584B00E4605463F
:1016A0002846FFF7ABFF40B20028F9D441F600040A
:1016B000C4F2010420464FF480610022FEF77AFF55
:1016C00020464FF480710022FEF774FFFF20009047
:1016D0000120CDE901000320039069462046FEF772
:1016E00063FE25B1012D08D14FF4006101E04FF4F4
:1016F000805120460022FEF75DFFE06800F47F4045
:10170000E060E0683043E0604FF4E170FFF764FBB5
:1017100020464FF400710122FEF74CFF4FF4E170B8
:10172000FFF75AFB20464FF400710022FEF742FFFC
:1017300025B1012D08D14FF4006101E04FF4805133
:1017400020460122FEF736FF04B070BDF0B585B02B
:1017500040F270060546C2F2000600BF30788009EC
:10176000FFF74CFF40B20028F8D441F60004C4F261
:10177000010420464FF480610022FEF71BFF204643
:101780004FF4807101220127FEF714FFFF20CDE9FD
:1017900001070320049001A920460397FEF704FEE9
:1017A0003078800904D0012808D14FF4006101E0AD
:1017B0004FF4805120460022FEF7FCFEE06800F462
:1017C0007F40E060E0682843E0604FF4E170FFF79D
:1017D00003FB20464FF400710122FEF7EBFE4FF4AD
:1017E000E170FFF7F9FA20464FF400710022FEF78E
:1017F000E1FE3078810904D0012909D14FF400615C
:1018000001E04FF4805120460122FEF7D3FE3078EC
:101810000130307005B0F0BD94B0FEF7E5FE002455
:101820000120CDE90C44CDE90A4406900B90022535
:101830004FF4E010CDE910054FF4C0601290102075
:101840004FF480310422139006A808910992079161
:10185000CDE90E51FFF766F808B172B6FEE70F202A
:10186000CDE901054FF48060CDE9040401A802210F
:101870000394FEF753FF10B172B600BFFEE770206D
:10188000C4F2422001210160FFF784FCFFF7F6FC5F
:10189000FFF7DCFDFFF730FD05200F2101220527B2
:1018A000FFF726FE052005210122FFF721FE0A2071
:1018B0000A210122FFF71CFE00200A210122002438
:1018C000FFF716FEA7F101085FFA88F00090A01D4F
:1018D00007F109015FFA80FBCDB204F10109584616
:1018E000294601225FFA89FAFFF702FEC4F10400DB
:1018F000C6B2304629460122FFF7FAFDC7F10B00B8
:10190000C5B2584629460122FFF7F2FD3046294666
:101910000122FFF7EDFD381D04F10B015FFA80FB9A
:10192000CDB2584629460122FFF7E2FDC7F1060075
:10193000C6B2304629460122FFF7DAFDC4F109009C
:10194000C5B2584629460122FFF7D2FD3046294646
:101950000122FFF7CDFD0098474682454C46B1D3A2
:101960000020C021FFF798FEFAE7000004050607F3
:10197000080900000000000D000000000000000049
:10198000010203040607080901020304050607080B
:10199000090A0B0C0D0E0F10B819000800000020EA
:1019A000100000008C010008C81900081000002079
:1019B000B0060000A80100080024F40001000000A7
:0819C00010000000000000000F
:04000005080001519D
:00000001FF
